{
  "address": "0xAD544B791111049CF5A182FA053205076B4dE461",
  "abi": [
    {
      "inputs": [
        {
          "internalType": "string",
          "name": "_name",
          "type": "string"
        },
        {
          "internalType": "string",
          "name": "_symbol",
          "type": "string"
        },
        {
          "internalType": "address",
          "name": "_proxyRegistryAddress",
          "type": "address"
        },
        {
          "internalType": "address",
          "name": "royaltyReceiver",
          "type": "address"
        },
        {
          "internalType": "uint96",
          "name": "royaltyFee",
          "type": "uint96"
        }
      ],
      "stateMutability": "nonpayable",
      "type": "constructor"
    },
    {
      "inputs": [],
      "name": "ApprovalCallerNotOwnerNorApproved",
      "type": "error"
    },
    {
      "inputs": [],
      "name": "ApprovalQueryForNonexistentToken",
      "type": "error"
    },
    {
      "inputs": [],
      "name": "ApprovalToCurrentOwner",
      "type": "error"
    },
    {
      "inputs": [],
      "name": "ApproveToCaller",
      "type": "error"
    },
    {
      "inputs": [],
      "name": "BalanceQueryForZeroAddress",
      "type": "error"
    },
    {
      "inputs": [],
      "name": "MintToZeroAddress",
      "type": "error"
    },
    {
      "inputs": [],
      "name": "MintZeroQuantity",
      "type": "error"
    },
    {
      "inputs": [],
      "name": "OwnerQueryForNonexistentToken",
      "type": "error"
    },
    {
      "inputs": [],
      "name": "TransferCallerNotOwnerNorApproved",
      "type": "error"
    },
    {
      "inputs": [],
      "name": "TransferFromIncorrectOwner",
      "type": "error"
    },
    {
      "inputs": [],
      "name": "TransferToNonERC721ReceiverImplementer",
      "type": "error"
    },
    {
      "inputs": [],
      "name": "TransferToZeroAddress",
      "type": "error"
    },
    {
      "inputs": [],
      "name": "URIQueryForNonexistentToken",
      "type": "error"
    },
    {
      "anonymous": false,
      "inputs": [
        {
          "indexed": true,
          "internalType": "address",
          "name": "owner",
          "type": "address"
        },
        {
          "indexed": true,
          "internalType": "address",
          "name": "approved",
          "type": "address"
        },
        {
          "indexed": true,
          "internalType": "uint256",
          "name": "tokenId",
          "type": "uint256"
        }
      ],
      "name": "Approval",
      "type": "event"
    },
    {
      "anonymous": false,
      "inputs": [
        {
          "indexed": true,
          "internalType": "address",
          "name": "owner",
          "type": "address"
        },
        {
          "indexed": true,
          "internalType": "address",
          "name": "operator",
          "type": "address"
        },
        {
          "indexed": false,
          "internalType": "bool",
          "name": "approved",
          "type": "bool"
        }
      ],
      "name": "ApprovalForAll",
      "type": "event"
    },
    {
      "anonymous": false,
      "inputs": [
        {
          "indexed": true,
          "internalType": "address",
          "name": "previousOwner",
          "type": "address"
        },
        {
          "indexed": true,
          "internalType": "address",
          "name": "newOwner",
          "type": "address"
        }
      ],
      "name": "OwnershipTransferred",
      "type": "event"
    },
    {
      "anonymous": false,
      "inputs": [
        {
          "indexed": true,
          "internalType": "address",
          "name": "from",
          "type": "address"
        },
        {
          "indexed": true,
          "internalType": "address",
          "name": "to",
          "type": "address"
        },
        {
          "indexed": true,
          "internalType": "uint256",
          "name": "tokenId",
          "type": "uint256"
        }
      ],
      "name": "Transfer",
      "type": "event"
    },
    {
      "inputs": [
        {
          "internalType": "address",
          "name": "to",
          "type": "address"
        },
        {
          "internalType": "uint256",
          "name": "tokenId",
          "type": "uint256"
        }
      ],
      "name": "approve",
      "outputs": [],
      "stateMutability": "nonpayable",
      "type": "function"
    },
    {
      "inputs": [
        {
          "internalType": "address",
          "name": "owner",
          "type": "address"
        }
      ],
      "name": "balanceOf",
      "outputs": [
        {
          "internalType": "uint256",
          "name": "",
          "type": "uint256"
        }
      ],
      "stateMutability": "view",
      "type": "function"
    },
    {
      "inputs": [
        {
          "internalType": "address",
          "name": "proxyAddress",
          "type": "address"
        }
      ],
      "name": "flipProxyState",
      "outputs": [],
      "stateMutability": "nonpayable",
      "type": "function"
    },
    {
      "inputs": [
        {
          "internalType": "uint256",
          "name": "tokenId",
          "type": "uint256"
        }
      ],
      "name": "getApproved",
      "outputs": [
        {
          "internalType": "address",
          "name": "",
          "type": "address"
        }
      ],
      "stateMutability": "view",
      "type": "function"
    },
    {
      "inputs": [
        {
          "internalType": "address",
          "name": "owner",
          "type": "address"
        },
        {
          "internalType": "address",
          "name": "operator",
          "type": "address"
        }
      ],
      "name": "isApprovedForAll",
      "outputs": [
        {
          "internalType": "bool",
          "name": "",
          "type": "bool"
        }
      ],
      "stateMutability": "view",
      "type": "function"
    },
    {
      "inputs": [],
      "name": "maxMintAmountPerTx",
      "outputs": [
        {
          "internalType": "uint256",
          "name": "",
          "type": "uint256"
        }
      ],
      "stateMutability": "view",
      "type": "function"
    },
    {
      "inputs": [],
      "name": "maxMintAmountPerTxPreSale",
      "outputs": [
        {
          "internalType": "uint256",
          "name": "",
          "type": "uint256"
        }
      ],
      "stateMutability": "view",
      "type": "function"
    },
    {
      "inputs": [],
      "name": "maxPerWalletPreSale",
      "outputs": [
        {
          "internalType": "uint256",
          "name": "",
          "type": "uint256"
        }
      ],
      "stateMutability": "view",
      "type": "function"
    },
    {
      "inputs": [],
      "name": "maxSupply",
      "outputs": [
        {
          "internalType": "uint256",
          "name": "",
          "type": "uint256"
        }
      ],
      "stateMutability": "view",
      "type": "function"
    },
    {
      "inputs": [],
      "name": "name",
      "outputs": [
        {
          "internalType": "string",
          "name": "",
          "type": "string"
        }
      ],
      "stateMutability": "view",
      "type": "function"
    },
    {
      "inputs": [],
      "name": "onlyWhitelist",
      "outputs": [
        {
          "internalType": "bool",
          "name": "",
          "type": "bool"
        }
      ],
      "stateMutability": "view",
      "type": "function"
    },
    {
      "inputs": [],
      "name": "owner",
      "outputs": [
        {
          "internalType": "address",
          "name": "",
          "type": "address"
        }
      ],
      "stateMutability": "view",
      "type": "function"
    },
    {
      "inputs": [
        {
          "internalType": "uint256",
          "name": "tokenId",
          "type": "uint256"
        }
      ],
      "name": "ownerOf",
      "outputs": [
        {
          "internalType": "address",
          "name": "",
          "type": "address"
        }
      ],
      "stateMutability": "view",
      "type": "function"
    },
    {
      "inputs": [
        {
          "internalType": "bool",
          "name": "_state",
          "type": "bool"
        }
      ],
      "name": "pause",
      "outputs": [],
      "stateMutability": "nonpayable",
      "type": "function"
    },
    {
      "inputs": [],
      "name": "paused",
      "outputs": [
        {
          "internalType": "bool",
          "name": "",
          "type": "bool"
        }
      ],
      "stateMutability": "view",
      "type": "function"
    },
    {
      "inputs": [],
      "name": "preSalePrice",
      "outputs": [
        {
          "internalType": "uint256",
          "name": "",
          "type": "uint256"
        }
      ],
      "stateMutability": "view",
      "type": "function"
    },
    {
      "inputs": [],
      "name": "price",
      "outputs": [
        {
          "internalType": "uint256",
          "name": "",
          "type": "uint256"
        }
      ],
      "stateMutability": "view",
      "type": "function"
    },
    {
      "inputs": [],
      "name": "proxyRegistryAddress",
      "outputs": [
        {
          "internalType": "address",
          "name": "",
          "type": "address"
        }
      ],
      "stateMutability": "view",
      "type": "function"
    },
    {
      "inputs": [
        {
          "internalType": "address",
          "name": "",
          "type": "address"
        }
      ],
      "name": "proxyToApproved",
      "outputs": [
        {
          "internalType": "bool",
          "name": "",
          "type": "bool"
        }
      ],
      "stateMutability": "view",
      "type": "function"
    },
    {
      "inputs": [
        {
          "internalType": "uint256",
          "name": "quantity",
          "type": "uint256"
        }
      ],
      "name": "publicMint",
      "outputs": [],
      "stateMutability": "payable",
      "type": "function"
    },
    {
      "inputs": [],
      "name": "renounceOwnership",
      "outputs": [],
      "stateMutability": "nonpayable",
      "type": "function"
    },
    {
      "inputs": [
        {
          "internalType": "address",
          "name": "_address",
          "type": "address"
        },
        {
          "internalType": "uint256",
          "name": "_quantity",
          "type": "uint256"
        }
      ],
      "name": "reserve",
      "outputs": [],
      "stateMutability": "nonpayable",
      "type": "function"
    },
    {
      "inputs": [
        {
          "internalType": "uint256",
          "name": "_tokenId",
          "type": "uint256"
        },
        {
          "internalType": "uint256",
          "name": "_salePrice",
          "type": "uint256"
        }
      ],
      "name": "royaltyInfo",
      "outputs": [
        {
          "internalType": "address",
          "name": "",
          "type": "address"
        },
        {
          "internalType": "uint256",
          "name": "",
          "type": "uint256"
        }
      ],
      "stateMutability": "view",
      "type": "function"
    },
    {
      "inputs": [
        {
          "internalType": "address",
          "name": "from",
          "type": "address"
        },
        {
          "internalType": "address",
          "name": "to",
          "type": "address"
        },
        {
          "internalType": "uint256",
          "name": "tokenId",
          "type": "uint256"
        }
      ],
      "name": "safeTransferFrom",
      "outputs": [],
      "stateMutability": "nonpayable",
      "type": "function"
    },
    {
      "inputs": [
        {
          "internalType": "address",
          "name": "from",
          "type": "address"
        },
        {
          "internalType": "address",
          "name": "to",
          "type": "address"
        },
        {
          "internalType": "uint256",
          "name": "tokenId",
          "type": "uint256"
        },
        {
          "internalType": "bytes",
          "name": "_data",
          "type": "bytes"
        }
      ],
      "name": "safeTransferFrom",
      "outputs": [],
      "stateMutability": "nonpayable",
      "type": "function"
    },
    {
      "inputs": [
        {
          "internalType": "address",
          "name": "operator",
          "type": "address"
        },
        {
          "internalType": "bool",
          "name": "approved",
          "type": "bool"
        }
      ],
      "name": "setApprovalForAll",
      "outputs": [],
      "stateMutability": "nonpayable",
      "type": "function"
    },
    {
      "inputs": [
        {
          "internalType": "string",
          "name": "baseURI",
          "type": "string"
        }
      ],
      "name": "setBaseURI",
      "outputs": [],
      "stateMutability": "nonpayable",
      "type": "function"
    },
    {
      "inputs": [
        {
          "internalType": "address",
          "name": "receiver",
          "type": "address"
        },
        {
          "internalType": "uint96",
          "name": "feeNumerator",
          "type": "uint96"
        }
      ],
      "name": "setDefaultRoyalty",
      "outputs": [],
      "stateMutability": "nonpayable",
      "type": "function"
    },
    {
      "inputs": [
        {
          "internalType": "uint256",
          "name": "_maxMintAmountPerTx",
          "type": "uint256"
        }
      ],
      "name": "setMaxMintAmountPerTx",
      "outputs": [],
      "stateMutability": "nonpayable",
      "type": "function"
    },
    {
      "inputs": [
        {
          "internalType": "uint256",
          "name": "_maxMintAmountPerTxPreSale",
          "type": "uint256"
        }
      ],
      "name": "setMaxMintAmountPerTxPreSale",
      "outputs": [],
      "stateMutability": "nonpayable",
      "type": "function"
    },
    {
      "inputs": [
        {
          "internalType": "uint256",
          "name": "_maxPerWalletPreSale",
          "type": "uint256"
        }
      ],
      "name": "setMaxPerWalletPreSale",
      "outputs": [],
      "stateMutability": "nonpayable",
      "type": "function"
    },
    {
      "inputs": [
        {
          "internalType": "uint256",
          "name": "_maxSupply",
          "type": "uint256"
        }
      ],
      "name": "setMaxSupply",
      "outputs": [],
      "stateMutability": "nonpayable",
      "type": "function"
    },
    {
      "inputs": [
        {
          "internalType": "bytes32",
          "name": "_root",
          "type": "bytes32"
        }
      ],
      "name": "setMerkleRoot",
      "outputs": [],
      "stateMutability": "nonpayable",
      "type": "function"
    },
    {
      "inputs": [
        {
          "internalType": "bool",
          "name": "_state",
          "type": "bool"
        }
      ],
      "name": "setOnlyWhitelist",
      "outputs": [],
      "stateMutability": "nonpayable",
      "type": "function"
    },
    {
      "inputs": [
        {
          "internalType": "uint256",
          "name": "_preSalePrice",
          "type": "uint256"
        }
      ],
      "name": "setPreSalePrice",
      "outputs": [],
      "stateMutability": "nonpayable",
      "type": "function"
    },
    {
      "inputs": [
        {
          "internalType": "uint256",
          "name": "_price",
          "type": "uint256"
        }
      ],
      "name": "setPrice",
      "outputs": [],
      "stateMutability": "nonpayable",
      "type": "function"
    },
    {
      "inputs": [
        {
          "internalType": "address",
          "name": "_proxyRegistryAddress",
          "type": "address"
        }
      ],
      "name": "setProxyRegistryAddress",
      "outputs": [],
      "stateMutability": "nonpayable",
      "type": "function"
    },
    {
      "inputs": [
        {
          "internalType": "address",
          "name": "receiver",
          "type": "address"
        },
        {
          "internalType": "uint96",
          "name": "feeBasisPoints",
          "type": "uint96"
        }
      ],
      "name": "setRoyaltyInfo",
      "outputs": [],
      "stateMutability": "nonpayable",
      "type": "function"
    },
    {
      "inputs": [
        {
          "internalType": "bytes4",
          "name": "interfaceId",
          "type": "bytes4"
        }
      ],
      "name": "supportsInterface",
      "outputs": [
        {
          "internalType": "bool",
          "name": "",
          "type": "bool"
        }
      ],
      "stateMutability": "view",
      "type": "function"
    },
    {
      "inputs": [],
      "name": "symbol",
      "outputs": [
        {
          "internalType": "string",
          "name": "",
          "type": "string"
        }
      ],
      "stateMutability": "view",
      "type": "function"
    },
    {
      "inputs": [
        {
          "internalType": "uint256",
          "name": "tokenId",
          "type": "uint256"
        }
      ],
      "name": "tokenURI",
      "outputs": [
        {
          "internalType": "string",
          "name": "",
          "type": "string"
        }
      ],
      "stateMutability": "view",
      "type": "function"
    },
    {
      "inputs": [],
      "name": "totalSupply",
      "outputs": [
        {
          "internalType": "uint256",
          "name": "",
          "type": "uint256"
        }
      ],
      "stateMutability": "view",
      "type": "function"
    },
    {
      "inputs": [
        {
          "internalType": "address",
          "name": "from",
          "type": "address"
        },
        {
          "internalType": "address",
          "name": "to",
          "type": "address"
        },
        {
          "internalType": "uint256",
          "name": "tokenId",
          "type": "uint256"
        }
      ],
      "name": "transferFrom",
      "outputs": [],
      "stateMutability": "nonpayable",
      "type": "function"
    },
    {
      "inputs": [
        {
          "internalType": "address",
          "name": "newOwner",
          "type": "address"
        }
      ],
      "name": "transferOwnership",
      "outputs": [],
      "stateMutability": "nonpayable",
      "type": "function"
    },
    {
      "inputs": [
        {
          "internalType": "bytes32[]",
          "name": "merkleProof",
          "type": "bytes32[]"
        },
        {
          "internalType": "address",
          "name": "sender",
          "type": "address"
        }
      ],
      "name": "verify",
      "outputs": [
        {
          "internalType": "bool",
          "name": "",
          "type": "bool"
        }
      ],
      "stateMutability": "view",
      "type": "function"
    },
    {
      "inputs": [
        {
          "internalType": "uint256",
          "name": "quantity",
          "type": "uint256"
        },
        {
          "internalType": "bytes32[]",
          "name": "_merkleProof",
          "type": "bytes32[]"
        }
      ],
      "name": "whitelistMint",
      "outputs": [],
      "stateMutability": "payable",
      "type": "function"
    },
    {
      "inputs": [],
      "name": "withdraw",
      "outputs": [],
      "stateMutability": "nonpayable",
      "type": "function"
    }
  ],
  "transactionHash": "0x110839e81fcd16119b981eb73cbbf5be082581573b1925b2651a2bdbce82c0c4",
  "args": [
    "UrbanDogzClub",
    "UDC",
    "0x1E525EEAF261cA41b809884CBDE9DD9E1619573A",
    "0x399Db9b924bC348BfC3bD777817631eb5A79b152",
    500
  ],
  "numDeployments": 1,
  "solcInputHash": "c67b0ea760f6e2f0ae6c72aa472e4cdc",
  "bytecode": "0x60806040526101f4600c556701aa535d3d0c0000600d5567011c37937e080000600e556001600f819055601055600a6011556012805461ffff19166101011790553480156200004d57600080fd5b5060405162002e0a38038062002e0a8339810160408190526200007091620003cc565b84846200007d33620000e7565b8151620000929060039060208501906200023c565b508051620000a89060049060208401906200023c565b50600060019081556009555050601580546001600160a01b0319166001600160a01b038516179055620000dc828262000137565b5050505050620004bb565b600080546001600160a01b038381166001600160a01b0319831681178455604051919092169283917f8be0079c531659141344cd1fd0a4f28419497f9722a3daafe3b4186f6b6457e09190a35050565b6127106001600160601b0382161115620001ab5760405162461bcd60e51b815260206004820152602a60248201527f455243323938313a20726f79616c7479206665652077696c6c206578636565646044820152692073616c65507269636560b01b60648201526084015b60405180910390fd5b6001600160a01b038216620002035760405162461bcd60e51b815260206004820152601960248201527f455243323938313a20696e76616c6964207265636569766572000000000000006044820152606401620001a2565b604080518082019091526001600160a01b039092168083526001600160601b039091166020909201829052600160a01b90910217600a55565b8280546200024a906200047e565b90600052602060002090601f0160209004810192826200026e5760008555620002b9565b82601f106200028957805160ff1916838001178555620002b9565b82800160010185558215620002b9579182015b82811115620002b95782518255916020019190600101906200029c565b50620002c7929150620002cb565b5090565b5b80821115620002c75760008155600101620002cc565b634e487b7160e01b600052604160045260246000fd5b600082601f8301126200030a57600080fd5b81516001600160401b0380821115620003275762000327620002e2565b604051601f8301601f19908116603f01168101908282118183101715620003525762000352620002e2565b816040528381526020925086838588010111156200036f57600080fd5b600091505b8382101562000393578582018301518183018401529082019062000374565b83821115620003a55760008385830101525b9695505050505050565b80516001600160a01b0381168114620003c757600080fd5b919050565b600080600080600060a08688031215620003e557600080fd5b85516001600160401b0380821115620003fd57600080fd5b6200040b89838a01620002f8565b965060208801519150808211156200042257600080fd5b506200043188828901620002f8565b9450506200044260408701620003af565b92506200045260608701620003af565b60808701519092506001600160601b03811681146200047057600080fd5b809150509295509295909350565b600181811c908216806200049357607f821691505b60208210811415620004b557634e487b7160e01b600052602260045260246000fd5b50919050565b61293f80620004cb6000396000f3fe6080604052600436106102885760003560e01c80637cb647591161015a578063b476aae3116100c1578063d2cab0561161007a578063d2cab05614610791578063d5abeb01146107a4578063e757c17d146107ba578063e985e9c5146107d0578063f2fde38b146107f0578063f73c814b1461081057600080fd5b8063b476aae3146106d1578063b88d4fde146106f1578063c87b56dd14610711578063cc47a40b14610731578063cd7c032614610751578063d26ea6c01461077157600080fd5b806395d89b411161011357806395d89b41146106175780639dc38c7d1461062c578063a035b1fe1461065c578063a22cb46514610672578063a88e099614610692578063b071401b146106b157600080fd5b80637cb647591461056d5780637d7eee421461058d57806380558a6b146105ad5780638da5cb5b146105c357806391b7f5ed146105e157806394354fd01461060157600080fd5b80632a55205a116101fe5780635c975abb116101b75780635c975abb146104be5780636352211e146104d8578063659a1026146104f85780636f8b44b01461051857806370a0823114610538578063715018a61461055857600080fd5b80632a55205a146104015780632db115441461044057806339c7d59d146104535780633ccfd60b1461046957806342842e0e1461047e57806355f804b31461049e57600080fd5b8063081812fc11610250578063081812fc14610326578063095ea7b31461035e5780630efc17b61461037e57806318160ddd1461039e5780631dd02b4b146103c157806323b872dd146103e157600080fd5b806301ffc9a71461028d57806302329a29146102c257806302fa7c47146102e457806304634d8d146102e457806306fdde0314610304575b600080fd5b34801561029957600080fd5b506102ad6102a8366004612296565b610830565b60405190151581526020015b60405180910390f35b3480156102ce57600080fd5b506102e26102dd3660046122c8565b610841565b005b3480156102f057600080fd5b506102e26102ff3660046122f8565b610887565b34801561031057600080fd5b506103196108bf565b6040516102b99190612395565b34801561033257600080fd5b506103466103413660046123a8565b610951565b6040516001600160a01b0390911681526020016102b9565b34801561036a57600080fd5b506102e26103793660046123c1565b610995565b34801561038a57600080fd5b506102e26103993660046123a8565b610a23565b3480156103aa57600080fd5b50600254600154035b6040519081526020016102b9565b3480156103cd57600080fd5b506102e26103dc3660046122c8565b610a52565b3480156103ed57600080fd5b506102e26103fc3660046123ed565b610a96565b34801561040d57600080fd5b5061042161041c36600461242e565b610aa1565b604080516001600160a01b0390931683526020830191909152016102b9565b6102e261044e3660046123a8565b610b4f565b34801561045f57600080fd5b506103b3600f5481565b34801561047557600080fd5b506102e2610cd2565b34801561048a57600080fd5b506102e26104993660046123ed565b610de7565b3480156104aa57600080fd5b506102e26104b9366004612450565b610e02565b3480156104ca57600080fd5b506012546102ad9060ff1681565b3480156104e457600080fd5b506103466104f33660046123a8565b610e38565b34801561050457600080fd5b506102ad610513366004612507565b610e4a565b34801561052457600080fd5b506102e26105333660046123a8565b610ed0565b34801561054457600080fd5b506103b361055336600461255e565b610eff565b34801561056457600080fd5b506102e2610f4e565b34801561057957600080fd5b506102e26105883660046123a8565b610f84565b34801561059957600080fd5b506102e26105a83660046123a8565b610fb3565b3480156105b957600080fd5b506103b360105481565b3480156105cf57600080fd5b506000546001600160a01b0316610346565b3480156105ed57600080fd5b506102e26105fc3660046123a8565b610fe2565b34801561060d57600080fd5b506103b360115481565b34801561062357600080fd5b50610319611011565b34801561063857600080fd5b506102ad61064736600461255e565b60166020526000908152604090205460ff1681565b34801561066857600080fd5b506103b3600d5481565b34801561067e57600080fd5b506102e261068d36600461257b565b611020565b34801561069e57600080fd5b506012546102ad90610100900460ff1681565b3480156106bd57600080fd5b506102e26106cc3660046123a8565b6110b6565b3480156106dd57600080fd5b506102e26106ec3660046123a8565b6110e5565b3480156106fd57600080fd5b506102e261070c3660046125c6565b611114565b34801561071d57600080fd5b5061031961072c3660046123a8565b611165565b34801561073d57600080fd5b506102e261074c3660046123c1565b6111ea565b34801561075d57600080fd5b50601554610346906001600160a01b031681565b34801561077d57600080fd5b506102e261078c36600461255e565b61121e565b6102e261079f3660046126a6565b61126a565b3480156107b057600080fd5b506103b3600c5481565b3480156107c657600080fd5b506103b3600e5481565b3480156107dc57600080fd5b506102ad6107eb3660046126f2565b611607565b3480156107fc57600080fd5b506102e261080b36600461255e565b6116fa565b34801561081c57600080fd5b506102e261082b36600461255e565b611795565b600061083b826117e8565b92915050565b6000546001600160a01b031633146108745760405162461bcd60e51b815260040161086b90612720565b60405180910390fd5b6012805460ff1916911515919091179055565b6000546001600160a01b031633146108b15760405162461bcd60e51b815260040161086b90612720565b6108bb828261180d565b5050565b6060600380546108ce90612755565b80601f01602080910402602001604051908101604052809291908181526020018280546108fa90612755565b80156109475780601f1061091c57610100808354040283529160200191610947565b820191906000526020600020905b81548152906001019060200180831161092a57829003601f168201915b5050505050905090565b600061095c8261190a565b610979576040516333d1c03960e21b815260040160405180910390fd5b506000908152600760205260409020546001600160a01b031690565b60006109a082610e38565b9050806001600160a01b0316836001600160a01b031614156109d55760405163250fdee360e21b815260040160405180910390fd5b336001600160a01b038216148015906109f557506109f38133611607565b155b15610a13576040516367d9dca160e11b815260040160405180910390fd5b610a1e838383611936565b505050565b6000546001600160a01b03163314610a4d5760405162461bcd60e51b815260040161086b90612720565b600f55565b6000546001600160a01b03163314610a7c5760405162461bcd60e51b815260040161086b90612720565b601280549115156101000261ff0019909216919091179055565b610a1e838383611992565b6000828152600b602090815260408083208151808301909252546001600160a01b038116808352600160a01b9091046001600160601b0316928201929092528291610b16575060408051808201909152600a546001600160a01b0381168252600160a01b90046001600160601b031660208201525b602081015160009061271090610b35906001600160601b0316876127a6565b610b3f91906127db565b91519350909150505b9250929050565b6000610b5e6002546001540390565b60125490915060ff1615610ba55760405162461bcd60e51b815260206004820152600e60248201526d135a5b9d1a5b99c81c185d5cd95960921b604482015260640161086b565b60003411610bee5760405162461bcd60e51b815260206004820152601660248201527526bab9ba1039b2b7321022aa24103a379036b4b73a1760511b604482015260640161086b565b600c54811115610c2c5760405162461bcd60e51b815260206004820152600960248201526829b7b6321037baba1760b91b604482015260640161086b565b601154821115610c725760405162461bcd60e51b8152602060048201526011602482015270115e18d959591cc81d1e1b881b1a5b5a5d607a1b604482015260640161086b565b3482600d54610c8191906127a6565b1115610cc85760405162461bcd60e51b815260206004820152601660248201527522aa241039b2b73a1034b99034b731b7b93932b1ba1760511b604482015260640161086b565b6108bb3383611ba5565b6000546001600160a01b03163314610cfc5760405162461bcd60e51b815260040161086b90612720565b60026009541415610d4f5760405162461bcd60e51b815260206004820152601f60248201527f5265656e7472616e637947756172643a207265656e7472616e742063616c6c00604482015260640161086b565b6002600955604051600090339047908381818185875af1925050503d8060008114610d96576040519150601f19603f3d011682016040523d82523d6000602084013e610d9b565b606091505b5050905080610ddf5760405162461bcd60e51b815260206004820152601060248201526f2a3930b739b332b9103330b4b632b21760811b604482015260640161086b565b506001600955565b610a1e83838360405180602001604052806000815250611114565b6000546001600160a01b03163314610e2c5760405162461bcd60e51b815260040161086b90612720565b610a1e601383836121e7565b6000610e4382611bbf565b5192915050565b6040516bffffffffffffffffffffffff19606083901b1660208201526000908190603401604051602081830303815290604052805190602001209050610ec7858580806020026020016040519081016040528093929190818152602001838360200280828437600092019190915250506014549150849050611cdb565b95945050505050565b6000546001600160a01b03163314610efa5760405162461bcd60e51b815260040161086b90612720565b600c55565b60006001600160a01b038216610f28576040516323d3ad8160e21b815260040160405180910390fd5b506001600160a01b031660009081526006602052604090205467ffffffffffffffff1690565b6000546001600160a01b03163314610f785760405162461bcd60e51b815260040161086b90612720565b610f826000611cf1565b565b6000546001600160a01b03163314610fae5760405162461bcd60e51b815260040161086b90612720565b601455565b6000546001600160a01b03163314610fdd5760405162461bcd60e51b815260040161086b90612720565b600e55565b6000546001600160a01b0316331461100c5760405162461bcd60e51b815260040161086b90612720565b600d55565b6060600480546108ce90612755565b6001600160a01b03821633141561104a5760405163b06307db60e01b815260040160405180910390fd5b3360008181526008602090815260408083206001600160a01b03871680855290835292819020805460ff191686151590811790915590519081529192917f17307eab39ab6107e8899845ad3d59bd9653f200f220920489ca2b5937696c31910160405180910390a35050565b6000546001600160a01b031633146110e05760405162461bcd60e51b815260040161086b90612720565b601155565b6000546001600160a01b0316331461110f5760405162461bcd60e51b815260040161086b90612720565b601055565b61111f848484611992565b6001600160a01b0383163b15158015611141575061113f84848484611d41565b155b1561115f576040516368d2bf6b60e11b815260040160405180910390fd5b50505050565b60606111708261190a565b61118d57604051630a14c4b560e41b815260040160405180910390fd5b6000611197611e38565b90508051600014156111b857604051806020016040528060008152506111e3565b806111c284611e47565b6040516020016111d39291906127ef565b6040516020818303038152906040525b9392505050565b6000546001600160a01b031633146112145760405162461bcd60e51b815260040161086b90612720565b6108bb8282611ba5565b6000546001600160a01b031633146112485760405162461bcd60e51b815260040161086b90612720565b601580546001600160a01b0319166001600160a01b0392909216919091179055565b60006112796002546001540390565b6040516bffffffffffffffffffffffff193360601b16602082015290915060009060340160408051601f19818403018152919052805160209091012060125490915060ff16156112fc5760405162461bcd60e51b815260206004820152600e60248201526d135a5b9d1a5b99c81c185d5cd95960921b604482015260640161086b565b601254610100900460ff166113705760405162461bcd60e51b815260206004820152603460248201527f57686974656c697374206d696e74696e67206973206e6f7420616374697665206044820152731bdc881a185cc8185b1c9958591e48195b99195960621b606482015260840161086b565b600034116113b95760405162461bcd60e51b815260206004820152601660248201527526bab9ba1039b2b7321022aa24103a379036b4b73a1760511b604482015260640161086b565b600c548211156113f75760405162461bcd60e51b815260206004820152600960248201526829b7b6321037baba1760b91b604482015260640161086b565b600c54611404868461281e565b11156114685760405162461bcd60e51b815260206004820152602d60248201527f526571756573746564207175616e7469747920776f756c64206578636565642060448201526c3a37ba30b61039bab838363c9760991b606482015260840161086b565b6114a9848480806020026020016040519081016040528093929190818152602001838360200280828437600092019190915250506014549150849050611cdb565b6114f55760405162461bcd60e51b815260206004820152601c60248201527f55736572206973206e6f7420696e207468652077686974656c69737400000000604482015260640161086b565b60105461150133610eff565b1061154e5760405162461bcd60e51b815260206004820181905260248201527f457863656564732077616c6c6574206c696d697420666f722070726573616c65604482015260640161086b565b600f548511156115a05760405162461bcd60e51b815260206004820152601960248201527f457863656564732070726573616c652074786e206c696d697400000000000000604482015260640161086b565b3485600e546115af91906127a6565b11156115f65760405162461bcd60e51b815260206004820152601660248201527522aa241039b2b73a1034b99034b731b7b93932b1ba1760511b604482015260640161086b565b6116003386611ba5565b5050505050565b60155460405163c455279160e01b81526001600160a01b03848116600483015260009281169190841690829063c45527919060240160206040518083038186803b15801561165457600080fd5b505afa158015611668573d6000803e3d6000fd5b505050506040513d601f19601f8201168201806040525081019061168c9190612836565b6001600160a01b031614806116b957506001600160a01b03831660009081526016602052604090205460ff165b156116c857600191505061083b565b6001600160a01b0380851660009081526008602090815260408083209387168352929052205460ff165b949350505050565b6000546001600160a01b031633146117245760405162461bcd60e51b815260040161086b90612720565b6001600160a01b0381166117895760405162461bcd60e51b815260206004820152602660248201527f4f776e61626c653a206e6577206f776e657220697320746865207a65726f206160448201526564647265737360d01b606482015260840161086b565b61179281611cf1565b50565b6000546001600160a01b031633146117bf5760405162461bcd60e51b815260040161086b90612720565b6001600160a01b03166000908152601660205260409020805460ff19811660ff90911615179055565b60006001600160e01b0319821663152a902d60e11b148061083b575061083b82611f45565b6127106001600160601b038216111561187b5760405162461bcd60e51b815260206004820152602a60248201527f455243323938313a20726f79616c7479206665652077696c6c206578636565646044820152692073616c65507269636560b01b606482015260840161086b565b6001600160a01b0382166118d15760405162461bcd60e51b815260206004820152601960248201527f455243323938313a20696e76616c696420726563656976657200000000000000604482015260640161086b565b604080518082019091526001600160a01b039092168083526001600160601b039091166020909201829052600160a01b90910217600a55565b60006001548210801561083b575050600090815260056020526040902054600160e01b900460ff161590565b60008281526007602052604080822080546001600160a01b0319166001600160a01b0387811691821790925591518593918516917f8c5be1e5ebec7d5bd14f71427d1e84f3dd0314c0f7b2291e5b200ac8c7c3b92591a4505050565b600061199d82611bbf565b80519091506000906001600160a01b0316336001600160a01b031614806119cb575081516119cb9033611607565b806119e65750336119db84610951565b6001600160a01b0316145b905080611a0657604051632ce44b5f60e11b815260040160405180910390fd5b846001600160a01b031682600001516001600160a01b031614611a3b5760405162a1148160e81b815260040160405180910390fd5b6001600160a01b038416611a6257604051633a954ecd60e21b815260040160405180910390fd5b611a726000848460000151611936565b6001600160a01b038581166000908152600660209081526040808320805467ffffffffffffffff1980821667ffffffffffffffff92831660001901831617909255898616808652838620805493841693831660019081018416949094179055898652600590945282852080546001600160e01b031916909417600160a01b429092169190910217909255908601808352912054909116611b5e57600154811015611b5e578251600082815260056020908152604090912080549186015167ffffffffffffffff16600160a01b026001600160e01b03199092166001600160a01b03909316929092171790555b5082846001600160a01b0316866001600160a01b03167fddf252ad1be2c89b69c2b068fc378daa952ba7f163c4a11628f55a4df523b3ef60405160405180910390a4611600565b6108bb828260405180602001604052806000815250611f95565b604080516060810182526000808252602082018190529181019190915281600154811015611cc257600081815260056020908152604091829020825160608101845290546001600160a01b0381168252600160a01b810467ffffffffffffffff1692820192909252600160e01b90910460ff16151591810182905290611cc05780516001600160a01b031615611c56579392505050565b5060001901600081815260056020908152604091829020825160608101845290546001600160a01b038116808352600160a01b820467ffffffffffffffff1693830193909352600160e01b900460ff1615159281019290925215611cbb579392505050565b611c56565b505b604051636f96cda160e11b815260040160405180910390fd5b600082611ce88584611fa2565b14949350505050565b600080546001600160a01b038381166001600160a01b0319831681178455604051919092169283917f8be0079c531659141344cd1fd0a4f28419497f9722a3daafe3b4186f6b6457e09190a35050565b604051630a85bd0160e11b81526000906001600160a01b0385169063150b7a0290611d76903390899088908890600401612853565b602060405180830381600087803b158015611d9057600080fd5b505af1925050508015611dc0575060408051601f3d908101601f19168201909252611dbd91810190612890565b60015b611e1b573d808015611dee576040519150601f19603f3d011682016040523d82523d6000602084013e611df3565b606091505b508051611e13576040516368d2bf6b60e11b815260040160405180910390fd5b805181602001fd5b6001600160e01b031916630a85bd0160e11b149050949350505050565b6060601380546108ce90612755565b606081611e6b5750506040805180820190915260018152600360fc1b602082015290565b8160005b8115611e955780611e7f816128ad565b9150611e8e9050600a836127db565b9150611e6f565b60008167ffffffffffffffff811115611eb057611eb06125b0565b6040519080825280601f01601f191660200182016040528015611eda576020820181803683370190505b5090505b84156116f257611eef6001836128c8565b9150611efc600a866128df565b611f0790603061281e565b60f81b818381518110611f1c57611f1c6128f3565b60200101906001600160f81b031916908160001a905350611f3e600a866127db565b9450611ede565b60006001600160e01b031982166380ac58cd60e01b1480611f7657506001600160e01b03198216635b5e139f60e01b145b8061083b57506301ffc9a760e01b6001600160e01b031983161461083b565b610a1e8383836001612016565b600081815b845181101561200e576000858281518110611fc457611fc46128f3565b60200260200101519050808311611fea5760008381526020829052604090209250611ffb565b600081815260208490526040902092505b5080612006816128ad565b915050611fa7565b509392505050565b6001546001600160a01b03851661203f57604051622e076360e81b815260040160405180910390fd5b8361205d5760405163b562e8dd60e01b815260040160405180910390fd5b6001600160a01b038516600081815260066020908152604080832080546fffffffffffffffffffffffffffffffff19811667ffffffffffffffff8083168c0181169182176801000000000000000067ffffffffffffffff1990941690921783900481168c01811690920217909155858452600590925290912080546001600160e01b031916909217600160a01b42909216919091021790558080850183801561210f57506001600160a01b0387163b15155b15612198575b60405182906001600160a01b038916906000907fddf252ad1be2c89b69c2b068fc378daa952ba7f163c4a11628f55a4df523b3ef908290a46121606000888480600101955088611d41565b61217d576040516368d2bf6b60e11b815260040160405180910390fd5b8082141561211557826001541461219357600080fd5b6121de565b5b6040516001830192906001600160a01b038916906000907fddf252ad1be2c89b69c2b068fc378daa952ba7f163c4a11628f55a4df523b3ef908290a480821415612199575b50600155611600565b8280546121f390612755565b90600052602060002090601f016020900481019282612215576000855561225b565b82601f1061222e5782800160ff1982351617855561225b565b8280016001018555821561225b579182015b8281111561225b578235825591602001919060010190612240565b5061226792915061226b565b5090565b5b80821115612267576000815560010161226c565b6001600160e01b03198116811461179257600080fd5b6000602082840312156122a857600080fd5b81356111e381612280565b803580151581146122c357600080fd5b919050565b6000602082840312156122da57600080fd5b6111e3826122b3565b6001600160a01b038116811461179257600080fd5b6000806040838503121561230b57600080fd5b8235612316816122e3565b915060208301356001600160601b038116811461233257600080fd5b809150509250929050565b60005b83811015612358578181015183820152602001612340565b8381111561115f5750506000910152565b6000815180845261238181602086016020860161233d565b601f01601f19169290920160200192915050565b6020815260006111e36020830184612369565b6000602082840312156123ba57600080fd5b5035919050565b600080604083850312156123d457600080fd5b82356123df816122e3565b946020939093013593505050565b60008060006060848603121561240257600080fd5b833561240d816122e3565b9250602084013561241d816122e3565b929592945050506040919091013590565b6000806040838503121561244157600080fd5b50508035926020909101359150565b6000806020838503121561246357600080fd5b823567ffffffffffffffff8082111561247b57600080fd5b818501915085601f83011261248f57600080fd5b81358181111561249e57600080fd5b8660208285010111156124b057600080fd5b60209290920196919550909350505050565b60008083601f8401126124d457600080fd5b50813567ffffffffffffffff8111156124ec57600080fd5b6020830191508360208260051b8501011115610b4857600080fd5b60008060006040848603121561251c57600080fd5b833567ffffffffffffffff81111561253357600080fd5b61253f868287016124c2565b9094509250506020840135612553816122e3565b809150509250925092565b60006020828403121561257057600080fd5b81356111e3816122e3565b6000806040838503121561258e57600080fd5b8235612599816122e3565b91506125a7602084016122b3565b90509250929050565b634e487b7160e01b600052604160045260246000fd5b600080600080608085870312156125dc57600080fd5b84356125e7816122e3565b935060208501356125f7816122e3565b925060408501359150606085013567ffffffffffffffff8082111561261b57600080fd5b818701915087601f83011261262f57600080fd5b813581811115612641576126416125b0565b604051601f8201601f19908116603f01168101908382118183101715612669576126696125b0565b816040528281528a602084870101111561268257600080fd5b82602086016020830137600060208483010152809550505050505092959194509250565b6000806000604084860312156126bb57600080fd5b83359250602084013567ffffffffffffffff8111156126d957600080fd5b6126e5868287016124c2565b9497909650939450505050565b6000806040838503121561270557600080fd5b8235612710816122e3565b91506020830135612332816122e3565b6020808252818101527f4f776e61626c653a2063616c6c6572206973206e6f7420746865206f776e6572604082015260600190565b600181811c9082168061276957607f821691505b6020821081141561278a57634e487b7160e01b600052602260045260246000fd5b50919050565b634e487b7160e01b600052601160045260246000fd5b60008160001904831182151516156127c0576127c0612790565b500290565b634e487b7160e01b600052601260045260246000fd5b6000826127ea576127ea6127c5565b500490565b6000835161280181846020880161233d565b83519083019061281581836020880161233d565b01949350505050565b6000821982111561283157612831612790565b500190565b60006020828403121561284857600080fd5b81516111e3816122e3565b6001600160a01b038581168252841660208201526040810183905260806060820181905260009061288690830184612369565b9695505050505050565b6000602082840312156128a257600080fd5b81516111e381612280565b60006000198214156128c1576128c1612790565b5060010190565b6000828210156128da576128da612790565b500390565b6000826128ee576128ee6127c5565b500690565b634e487b7160e01b600052603260045260246000fdfea2646970667358221220fc357f7406aeb6462dbdfb77ff16969631de5d469d6f48ff27c523692d55085664736f6c63430008080033",
  "devdoc": {
    "kind": "dev",
    "methods": {
      "approve(address,uint256)": {
        "details": "See {IERC721-approve}."
      },
      "balanceOf(address)": {
        "details": "See {IERC721-balanceOf}."
      },
      "getApproved(uint256)": {
        "details": "See {IERC721-getApproved}."
      },
      "name()": {
        "details": "See {IERC721Metadata-name}."
      },
      "owner()": {
        "details": "Returns the address of the current owner."
      },
      "ownerOf(uint256)": {
        "details": "See {IERC721-ownerOf}."
      },
      "renounceOwnership()": {
        "details": "Leaves the contract without owner. It will not be possible to call `onlyOwner` functions anymore. Can only be called by the current owner. NOTE: Renouncing ownership will leave the contract without an owner, thereby removing any functionality that is only available to the owner."
      },
      "royaltyInfo(uint256,uint256)": {
        "details": "Returns how much royalty is owed and to whom, based on a sale price that may be denominated in any unit of exchange. The royalty amount is denominated and should be payed in that same unit of exchange."
      },
      "safeTransferFrom(address,address,uint256)": {
        "details": "See {IERC721-safeTransferFrom}."
      },
      "safeTransferFrom(address,address,uint256,bytes)": {
        "details": "See {IERC721-safeTransferFrom}."
      },
      "setApprovalForAll(address,bool)": {
        "details": "See {IERC721-setApprovalForAll}."
      },
      "symbol()": {
        "details": "See {IERC721Metadata-symbol}."
      },
      "tokenURI(uint256)": {
        "details": "See {IERC721Metadata-tokenURI}."
      },
      "totalSupply()": {
        "details": "See {IERC721Enumerable-totalSupply}.Burned tokens are calculated here, use _totalMinted() if you want to count just minted tokens."
      },
      "transferFrom(address,address,uint256)": {
        "details": "See {IERC721-transferFrom}."
      },
      "transferOwnership(address)": {
        "details": "Transfers ownership of the contract to a new account (`newOwner`). Can only be called by the current owner."
      }
    },
    "version": 1
  },
  "userdoc": {
    "kind": "user",
    "methods": {
      "isApprovedForAll(address,address)": {
        "notice": "Override isApprovedForAll to whitelist contracts."
      },
      "setRoyaltyInfo(address,uint96)": {
        "notice": "Sets the contract-wide royalty info."
      }
    },
    "version": 1
  },
  "storageLayout": {
    "storage": [
      {
        "astId": 7,
        "contract": "contracts/UrbanDogz.sol:UrbanDogz",
        "label": "_owner",
        "offset": 0,
        "slot": "0",
        "type": "t_address"
      },
      {
        "astId": 2434,
        "contract": "contracts/UrbanDogz.sol:UrbanDogz",
        "label": "_currentIndex",
        "offset": 0,
        "slot": "1",
        "type": "t_uint256"
      },
      {
        "astId": 2436,
        "contract": "contracts/UrbanDogz.sol:UrbanDogz",
        "label": "_burnCounter",
        "offset": 0,
        "slot": "2",
        "type": "t_uint256"
      },
      {
        "astId": 2438,
        "contract": "contracts/UrbanDogz.sol:UrbanDogz",
        "label": "_name",
        "offset": 0,
        "slot": "3",
        "type": "t_string_storage"
      },
      {
        "astId": 2440,
        "contract": "contracts/UrbanDogz.sol:UrbanDogz",
        "label": "_symbol",
        "offset": 0,
        "slot": "4",
        "type": "t_string_storage"
      },
      {
        "astId": 2445,
        "contract": "contracts/UrbanDogz.sol:UrbanDogz",
        "label": "_ownerships",
        "offset": 0,
        "slot": "5",
        "type": "t_mapping(t_uint256,t_struct(TokenOwnership)2423_storage)"
      },
      {
        "astId": 2450,
        "contract": "contracts/UrbanDogz.sol:UrbanDogz",
        "label": "_addressData",
        "offset": 0,
        "slot": "6",
        "type": "t_mapping(t_address,t_struct(AddressData)2432_storage)"
      },
      {
        "astId": 2454,
        "contract": "contracts/UrbanDogz.sol:UrbanDogz",
        "label": "_tokenApprovals",
        "offset": 0,
        "slot": "7",
        "type": "t_mapping(t_uint256,t_address)"
      },
      {
        "astId": 2460,
        "contract": "contracts/UrbanDogz.sol:UrbanDogz",
        "label": "_operatorApprovals",
        "offset": 0,
        "slot": "8",
        "type": "t_mapping(t_address,t_mapping(t_address,t_bool))"
      },
      {
        "astId": 137,
        "contract": "contracts/UrbanDogz.sol:UrbanDogz",
        "label": "_status",
        "offset": 0,
        "slot": "9",
        "type": "t_uint256"
      },
      {
        "astId": 375,
        "contract": "contracts/UrbanDogz.sol:UrbanDogz",
        "label": "_defaultRoyaltyInfo",
        "offset": 0,
        "slot": "10",
        "type": "t_struct(RoyaltyInfo)372_storage"
      },
      {
        "astId": 380,
        "contract": "contracts/UrbanDogz.sol:UrbanDogz",
        "label": "_tokenRoyaltyInfo",
        "offset": 0,
        "slot": "11",
        "type": "t_mapping(t_uint256,t_struct(RoyaltyInfo)372_storage)"
      },
      {
        "astId": 1824,
        "contract": "contracts/UrbanDogz.sol:UrbanDogz",
        "label": "maxSupply",
        "offset": 0,
        "slot": "12",
        "type": "t_uint256"
      },
      {
        "astId": 1827,
        "contract": "contracts/UrbanDogz.sol:UrbanDogz",
        "label": "price",
        "offset": 0,
        "slot": "13",
        "type": "t_uint256"
      },
      {
        "astId": 1830,
        "contract": "contracts/UrbanDogz.sol:UrbanDogz",
        "label": "preSalePrice",
        "offset": 0,
        "slot": "14",
        "type": "t_uint256"
      },
      {
        "astId": 1833,
        "contract": "contracts/UrbanDogz.sol:UrbanDogz",
        "label": "maxMintAmountPerTxPreSale",
        "offset": 0,
        "slot": "15",
        "type": "t_uint256"
      },
      {
        "astId": 1836,
        "contract": "contracts/UrbanDogz.sol:UrbanDogz",
        "label": "maxPerWalletPreSale",
        "offset": 0,
        "slot": "16",
        "type": "t_uint256"
      },
      {
        "astId": 1839,
        "contract": "contracts/UrbanDogz.sol:UrbanDogz",
        "label": "maxMintAmountPerTx",
        "offset": 0,
        "slot": "17",
        "type": "t_uint256"
      },
      {
        "astId": 1842,
        "contract": "contracts/UrbanDogz.sol:UrbanDogz",
        "label": "paused",
        "offset": 0,
        "slot": "18",
        "type": "t_bool"
      },
      {
        "astId": 1845,
        "contract": "contracts/UrbanDogz.sol:UrbanDogz",
        "label": "onlyWhitelist",
        "offset": 1,
        "slot": "18",
        "type": "t_bool"
      },
      {
        "astId": 1847,
        "contract": "contracts/UrbanDogz.sol:UrbanDogz",
        "label": "_baseTokenURI",
        "offset": 0,
        "slot": "19",
        "type": "t_string_storage"
      },
      {
        "astId": 1849,
        "contract": "contracts/UrbanDogz.sol:UrbanDogz",
        "label": "merkleRoot",
        "offset": 0,
        "slot": "20",
        "type": "t_bytes32"
      },
      {
        "astId": 1851,
        "contract": "contracts/UrbanDogz.sol:UrbanDogz",
        "label": "proxyRegistryAddress",
        "offset": 0,
        "slot": "21",
        "type": "t_address"
      },
      {
        "astId": 2290,
        "contract": "contracts/UrbanDogz.sol:UrbanDogz",
        "label": "proxyToApproved",
        "offset": 0,
        "slot": "22",
        "type": "t_mapping(t_address,t_bool)"
      }
    ],
    "types": {
      "t_address": {
        "encoding": "inplace",
        "label": "address",
        "numberOfBytes": "20"
      },
      "t_bool": {
        "encoding": "inplace",
        "label": "bool",
        "numberOfBytes": "1"
      },
      "t_bytes32": {
        "encoding": "inplace",
        "label": "bytes32",
        "numberOfBytes": "32"
      },
      "t_mapping(t_address,t_bool)": {
        "encoding": "mapping",
        "key": "t_address",
        "label": "mapping(address => bool)",
        "numberOfBytes": "32",
        "value": "t_bool"
      },
      "t_mapping(t_address,t_mapping(t_address,t_bool))": {
        "encoding": "mapping",
        "key": "t_address",
        "label": "mapping(address => mapping(address => bool))",
        "numberOfBytes": "32",
        "value": "t_mapping(t_address,t_bool)"
      },
      "t_mapping(t_address,t_struct(AddressData)2432_storage)": {
        "encoding": "mapping",
        "key": "t_address",
        "label": "mapping(address => struct ERC721A.AddressData)",
        "numberOfBytes": "32",
        "value": "t_struct(AddressData)2432_storage"
      },
      "t_mapping(t_uint256,t_address)": {
        "encoding": "mapping",
        "key": "t_uint256",
        "label": "mapping(uint256 => address)",
        "numberOfBytes": "32",
        "value": "t_address"
      },
      "t_mapping(t_uint256,t_struct(RoyaltyInfo)372_storage)": {
        "encoding": "mapping",
        "key": "t_uint256",
        "label": "mapping(uint256 => struct ERC2981.RoyaltyInfo)",
        "numberOfBytes": "32",
        "value": "t_struct(RoyaltyInfo)372_storage"
      },
      "t_mapping(t_uint256,t_struct(TokenOwnership)2423_storage)": {
        "encoding": "mapping",
        "key": "t_uint256",
        "label": "mapping(uint256 => struct ERC721A.TokenOwnership)",
        "numberOfBytes": "32",
        "value": "t_struct(TokenOwnership)2423_storage"
      },
      "t_string_storage": {
        "encoding": "bytes",
        "label": "string",
        "numberOfBytes": "32"
      },
      "t_struct(AddressData)2432_storage": {
        "encoding": "inplace",
        "label": "struct ERC721A.AddressData",
        "members": [
          {
            "astId": 2425,
            "contract": "contracts/UrbanDogz.sol:UrbanDogz",
            "label": "balance",
            "offset": 0,
            "slot": "0",
            "type": "t_uint64"
          },
          {
            "astId": 2427,
            "contract": "contracts/UrbanDogz.sol:UrbanDogz",
            "label": "numberMinted",
            "offset": 8,
            "slot": "0",
            "type": "t_uint64"
          },
          {
            "astId": 2429,
            "contract": "contracts/UrbanDogz.sol:UrbanDogz",
            "label": "numberBurned",
            "offset": 16,
            "slot": "0",
            "type": "t_uint64"
          },
          {
            "astId": 2431,
            "contract": "contracts/UrbanDogz.sol:UrbanDogz",
            "label": "aux",
            "offset": 24,
            "slot": "0",
            "type": "t_uint64"
          }
        ],
        "numberOfBytes": "32"
      },
      "t_struct(RoyaltyInfo)372_storage": {
        "encoding": "inplace",
        "label": "struct ERC2981.RoyaltyInfo",
        "members": [
          {
            "astId": 369,
            "contract": "contracts/UrbanDogz.sol:UrbanDogz",
            "label": "receiver",
            "offset": 0,
            "slot": "0",
            "type": "t_address"
          },
          {
            "astId": 371,
            "contract": "contracts/UrbanDogz.sol:UrbanDogz",
            "label": "royaltyFraction",
            "offset": 20,
            "slot": "0",
            "type": "t_uint96"
          }
        ],
        "numberOfBytes": "32"
      },
      "t_struct(TokenOwnership)2423_storage": {
        "encoding": "inplace",
        "label": "struct ERC721A.TokenOwnership",
        "members": [
          {
            "astId": 2418,
            "contract": "contracts/UrbanDogz.sol:UrbanDogz",
            "label": "addr",
            "offset": 0,
            "slot": "0",
            "type": "t_address"
          },
          {
            "astId": 2420,
            "contract": "contracts/UrbanDogz.sol:UrbanDogz",
            "label": "startTimestamp",
            "offset": 20,
            "slot": "0",
            "type": "t_uint64"
          },
          {
            "astId": 2422,
            "contract": "contracts/UrbanDogz.sol:UrbanDogz",
            "label": "burned",
            "offset": 28,
            "slot": "0",
            "type": "t_bool"
          }
        ],
        "numberOfBytes": "32"
      },
      "t_uint256": {
        "encoding": "inplace",
        "label": "uint256",
        "numberOfBytes": "32"
      },
      "t_uint64": {
        "encoding": "inplace",
        "label": "uint64",
        "numberOfBytes": "8"
      },
      "t_uint96": {
        "encoding": "inplace",
        "label": "uint96",
        "numberOfBytes": "12"
      }
    }
  }
}